:020000040800F2
:10000000D8040020450100088D0800088F0800086A
:1000100093080008970800089B08000800000000EB
:100020000000000000000000000000009F08000821
:10003000A108000800000000A3080008A5080008A7
:100040005F0100085F0100085F0100085F01000810
:100050005F0100085F0100085F0100085F01000800
:10006000290900085F0100085F0100085F0100081E
:100070005F0100085F0100085F0100085F010008E0
:100080005F0100085F0100085F0100085F010008D0
:100090005F0100085F0100085F0100085F010008C0
:1000A0005F0100085F0100085F0100085F010008B0
:1000B000B50800085F0100085F0100085F01000843
:1000C0005F0100085F0100085F0100085F01000890
:1000D0005F0100085F0100085F010008A708000831
:1000E0005F0100085F0100085F0100085F01000870
:1000F0005F0100085F0100085F0100085F01000860
:100100005F0100085F0100085F0100085F0100084F
:100110005F0100085F0100085F0100085F0100083F
:100120005F0100085F0100085F0100085F0100082F
:10013000DFF80CD003F05CFB00480047BB0100086F
:10014000D80400200648804706480047FEE7FEE73F
:10015000FEE7FEE7FEE7FEE7FEE7FEE7FEE7FEE777
:100160004D3100083101000810B54FF4C06001F0B6
:100170007DF810BD10B5FFF7F7FF00F081FE00F02D
:100180005DF800F06CF900F027F800F0EFFE00F0E9
:1001900023FA00F03DFB00F04BFB00214FF08040C4
:1001A00002F00EFB0021012001F041FA00F0B6FF41
:1001B0004FF4487001F037F810BD00BF00BFFFF7E3
:1001C000D9FF07E005E0002000F053FC002000F01C
:1001D000B5FDF8E7F6E700001FB50121084601F07C
:1001E00019FA0420ADF80C0028208DF80F0003A99F
:1001F000114801F0D7FA0221032001F0E7FB0420A7
:10020000019000208DF808000C208DF809000120D5
:100210008DF80A0001A801F01FFC08208DF80000ED
:1002200000208DF801008DF8020001208DF80300F8
:10023000684601F020F81FBD0014014008B50121F7
:10024000202001F0E7F90320ADF8000010208DF820
:10025000030003208DF802006946DA4801F0A2FA93
:100260000321D84801F049FBD648006820F00F0070
:10027000D44908600846006840F00300086008BDE3
:10028000D048006820F0F000CE49086008460068B9
:1002900040F0300008600020CB4908604FF00300B8
:1002A00000BF0100A0F10102D0B2FAD10120C7497C
:1002B00008604FF0030000BF0100A0F10102D0B2BE
:1002C000FAD10120C04908604FF0030000BF0100CF
:1002D000A0F10102D0B2FAD1BA48006820F0F000D3
:1002E000B84908600846006840F0800008600320B4
:1002F00000BF0100A0F10102D0B2FAD1704710B5E1
:10030000B04A126822F0F002AE4B1A601A46126828
:1003100042F030021A60002134E010F0800F03D068
:100320000122A94B1A6002E00022A74B1A604FF08D
:10033000030200BF1300A2F10104E2B2FAD10122CC
:10034000A24B1A604FEA40624FEA12604FF003027C
:1003500000BF1300A2F10104E2B2FAD1032200BFF0
:100360001300A2F10104E2B2FAD10022974B1A6005
:100370004FF0030200BF1300A2F10104E2B2FAD170
:100380004A1CD1B20829C8D101228F4B1A604FF004
:10039000030200BF1300A2F10104E2B2FAD101226C
:1003A0008A4B1A604FF0030200BF1300A2F1010450
:1003B000E2B2FAD1032200BF1300A2F10104E2B2BB
:1003C000FAD10022814B1A604FF0030200BF1300E4
:1003D000A2F10104E2B2FAD110BD7A48006820F01F
:1003E000F000784908600846006840F03000086076
:1003F0000120754908607649C1F880014FF003007B
:1004000000BF0100A0F10102D0B2FAD100206E4974
:1004100008604FF0030000BF0100A0F10102D0B25C
:10042000FAD10020694908604FF0030000BF0100C5
:10043000A0F10102D0B2FAD1704710B50446FFF71F
:10044000CCFFC4F3C71101F03E0141F06000FFF79B
:1004500056FFE0B2FFF753FFFFF712FF10BD00B5E4
:1004600040F20120FFF7E9FF032000BF0100A0F1E7
:100470000102D0B2FAD1032000BF0100A0F10102B5
:10048000D0B2FAD140F20340FFF7D7FF00BD10B55C
:1004900000204C4A126822F0F0024A4B1A601A46B9
:1004A000126842F030021A600122474B1A60454A36
:1004B000126822F0F002434B1A601A46126842F0AA
:1004C00080021A6001462CE00122404B1A604FF076
:1004D000030200BF1300A2F10104E2B2FAD1032229
:1004E00000BF1300A2F10104E2B2FAD14206100EDD
:1004F000384A12680AB1421CD0B20022334B1A604B
:100500004FF0030200BF1300A2F10104E2B2FAD1DE
:10051000032200BF1300A2F10104E2B2FAD14A1C87
:10052000D1B20829D0D1274A126822F0F002254B17
:100530001A601A46126842F030021A600122224BF9
:100540001A604FF0030200BF1300A2F10104E2B2EF
:10055000FAD101221D4B1A604FF0030200BF1300B5
:10056000A2F10104E2B2FAD1032200BF1300A2F10A
:100570000104E2B2FAD10022144B1A604FF00302D8
:1005800000BF1300A2F10104E2B2FAD110BD10B510
:10059000FFF723FF6F20FFF7B2FEFFF778FF044657
:1005A000032000BF0100A0F10102D0B2FAD1032064
:1005B00000BF0100A0F10102D0B2FAD1FFF760FE46
:1005C000204610BD001401408481224280812242D5
:1005D000008022420481224200B587B00121082018
:1005E00001F018F80121880401F021F8864801F093
:1005F000B3FA4FF48060ADF8180018208DF81B0096
:1006000003208DF81A0006A9804801F0CBF84FF4BA
:100610000060ADF8180004208DF81B0006A97B4887
:1006200001F0C0F84FF4E13002900020ADF80C006A
:10063000ADF80E00ADF81000ADF814000C20ADF8C8
:10064000120002A9704801F0CAFA27208DF80400B0
:1006500001208DF8050000208DF8060001208DF89E
:10066000070001A800F007FE012240F2255166486C
:1006700001F04DFB0121644801F03DFB07B000BDD6
:1006800070B504460D46E1B25F4801F0A1FB00BF22
:100690005D48008810F0800FFAD0204670BDF0B59C
:1006A00003460D461646002729460A2E03D0002091
:1006B00008702846F0BD33B9302001F8010B002046
:1006C00008702846F6E7002B03DA2D2001F8010B0D
:1006D0005B4242F210720DE093FBF2F404B937B1C1
:1006E00004F1300001F8010B04FB123301270A204A
:1006F00092FBF0F2002AEFDC002008702846D9E7D0
:100700000FB470B586B006460CA8019073E00B9844
:1007100000785C281CD10B98401C0B9000786E2848
:1007200009D072280FD10D21304601F051FB0B98F2
:10073000401C0B900BE00A21304601F049FB0B985E
:10074000401C0B9003E00B98401C0B9000BF4BE04B
:100750000B980078252840D10B98401C0B9000780E
:10076000642818D0732833D1019810C801900BE089
:100770002178304601F02CFB00BF4021304601F0CB
:1007800095FB0028F9D0641C20780028F0D10B9844
:10079000401C0B9020E0019820C801900A2202A979
:1007A0002846FFF77CFF02AC0BE02178304601F0D1
:1007B0000FFB00BF4021304601F078FB0028F9D044
:1007C000641C20780028F0D10B98401C0B9003E0AB
:1007D0000B98401C0B9000BF06E00B9810F8011B13
:1007E0000B90304601F0F4FA00BF4021304601F092
:1007F0005DFB0028F9D00B980078002887D106B05F
:1008000070BC5DF814FB000000480040000C014083
:1008100008B51C208DF8000000208DF80100012093
:100820008DF802008DF80300684600F024FD08BD35
:100830000EB50121084600F0FAFE4FF0804001F0AD
:100840008FFB4FF47A70ADF8040041F61F40ADF80D
:1008500000000020ADF80600ADF8020069464FF038
:10086000804001F051FC0121880702F06FFA01225B
:100870001146900701F0BFFF0121880701F0A0FF9A
:100880000021012000F0D3FE0EBD0000704700BF24
:10089000FEE700BFFEE700BFFEE700BFFEE77047D0
:1008A00070477047704710B540F225512D4801F050
:1008B00013FB10BD10B50121880702F04AFA002889
:1008C00031D00121880702F055FA27480078401CF2
:1008D0002549087008460078092821DD00200870A5
:1008E00022480078401C21490870214800780228DD
:1008F00004D120480078401C1E4908701B4800782D
:100900003B280DDD0020194908701B480078401C69
:1009100019490870084600783B2801DD002008705E
:1009200001201649087010BD10B50024042001F004
:10093000F9F8B0B1FFF72BFE0446412C0ED1182177
:100940000F4802F08AFC0F480078401C0D490870DF
:1009500008460078052801DD00200870042001F019
:10096000F2F810BD0048004047000020450000207C
:10097000000000204C00002046000020480000201D
:10098000BC000020440000202DE9F04F85B04FF05E
:100990000009002004908246002405E0012000F0B8
:1009A0005FFB8144601CC4B20A2CF7DB0A20B9FB50
:1009B000F0FB584602F0D0FD07460022FA4B02F049
:1009C00057FD05460022F94B02F0E0FCCDE902019B
:1009D00002F038FE0490002405E0002000F040FB07
:1009E0008144601CC4B20A2CF7DB484602F0B4FD17
:1009F0000022EF4BCDE9000102F03AFD054600224E
:100A0000E94B02F035FD07464FF06632E94B02F044
:100A1000BDFCCDE9020102F015FE82465146049864
:100A200002F07EFC054602F0A4FDE349E34A127899
:100A300041F82200504602F0C9FD05460E460498D2
:100A400002F0C4FD07460022DD4B02F09FFC2A465F
:100A50003346CDE9000102F00BFDCDE9020102F0C1
:100A60009CFDD849D54A127841F8220005B0BDE86E
:100A7000F08F2DE9F04704464FF0000A00F031FAFC
:100A8000D14606E0A11CC8B200F0EAFA824409F19E
:100A90000109B9F10A0FF5D3504602F05DFD074692
:100AA0000022C94B02F0E4FC054602F076FDC7497E
:100AB00041F82400BDE8F08730B50022884226D0F6
:100AC000884211D9431A5B1CC3F34702FAB1C04BE9
:100AD0001B689B1ABE4C236023461B68BD4CB74D58
:100AE0002D7844F8253012E00B1A0B330C24B3FB9D
:100AF000F4F3DAB25AB1B64B1B681344B44C23601A
:100B000023461B68B34CAD4D2D7844F8253030BDDD
:100B100010B5FFF739FFB0480168A748FFF7CCFFD1
:100B2000A6480078401CA5490870084600780528AA
:100B300001DD00200870A148007800F0E1F9A54926
:100B40009E4A127851F8220000F06DFB10BD2DE98D
:100B5000FC5F81468A46984C5146484602F0DDFBD0
:100B600001909E480168484602F0D4FB009002F0D4
:100B70002DFD07469A4A9B4B02F07AFC054602F08F
:100B800061FD8346019802F021FD05460022964B47
:100B900002F044FD08D3019802F018FD054600223A
:100BA000924B02F027FD0DD2019802F00FFD054691
:100BB00000228F4B02F01EFD05D2002C75D0601E66
:100BC0008C49086071E04FF08241019802F060FDAD
:100BD00018D24FF08341584602F05AFD05D2002C3E
:100BE00063D0601E834908605FE04FF08241584641
:100BF00002F044FD03D2601C7E49086055E07D4848
:100C0000046052E04FF08141019802F041FD17D29B
:100C10004FF08241584602F03BFD04D204B3601EFF
:100C20007449086041E04FF08141584602F026FDCA
:100C300003D2601C6F49086037E06E48046034E0FE
:100C40004FF08041019802F023FD17D24FF081410F
:100C5000584602F01DFD04D214B1601E65490860BB
:100C600023E04FF08041584602F008FD03D2601C9B
:100C70006049086019E05F48046016E04FF0804169
:100C8000584602F005FD04D27CB1601E5949086047
:100C90000BE04FF07E51584602F0F0FC03D2601C8E
:100CA0005449086001E0534804604C48C0F8009083
:100CB0005048006848490968884203D94648006896
:100CC0004C490860BDE8FC9F70B5FFF75DFE4A48DF
:100CD000006802F03CFC04463C49384A127851F85E
:100CE000220002F034FC05462146FFF730FF414860
:100CF00001683148FFF7E0FE70BD10B53F4800784D
:100D000030B1052000F08FFA00203C49087010BD7A
:100D1000FFF73AFE29480078401C28490870084629
:100D20000078052801DD002008702448007800F0D4
:100D3000E7F8052000F077FA00BFE8E73EB5044683
:100D400000252FA207CA8DE80700062C78D2DFE81D
:100D500004F003101D5D6A780C208DF804001B4818
:100D60000088000A8DF80600184800788DF8070002
:100D700075E00D208DF8040014488088000A8DF875
:100D80000600124800798DF8070068E00E208DF803
:100D900004000E480089000A8DF806000B48007A0E
:100DA0008DF807005BE000000000B0400060564096
:100DB0000000244066EE7B408C00002044000020B0
:100DC0000000F03FA400002000005940BC000020BB
:100DD000580000202C0000200800002050000020B7
:100DE0009A9999999999C93F0000E03F0000E0BFA6
:100DF0000000F8BF5C0000200C0000205400002020
:100E00005AA5058225000000000000001C208DF876
:100E1000040019488089000A8DF806001648007BF6
:100E20008DF807001BE01D208DF804001248008A91
:100E3000000A8DF806001048007C8DF807000EE0CF
:100E40000CE01E208DF804000B48808A000A8DF803
:100E500006000948007D8DF8070000E000BF00BFD4
:100E6000002506E01DF8051004A002F0E3FC681C54
:100E7000C5B2082DF6DB3EBDBC0000202563000096
:100E800008B50121982000F0C5FB0220ADF8000054
:100E900010208DF8030003208DF8020069463048C9
:100EA00000F080FC4FF48070ADF8000069462D48DA
:100EB00000F078FC1F20ADF8000069462A4800F0D9
:100EC00071FC08BD10B54FF48071264800F015FD87
:100ED0000221234800F013FD0121234800F00FFDFB
:100EE00010BD10B54FF480711E4800F008FD0221BE
:100EF0001B4800F002FD01211B4800F000FD10BD61
:100F000070B5044625460121174800F0F6FC15F09F
:100F1000010F04D00821144800F0EFFC03E0082181
:100F2000114800F0ECFC15F0020F04D004210E482B
:100F300000F0E3FC03E004210B4800F0E0FC15F0B6
:100F4000040F04D00221084800F0D7FC03E002217E
:100F5000054800F0D4FC0121034800F0D0FC70BD2E
:100F6000000C014000100140001C014000B587B09A
:100F70000121042000F04EFB0121080300F04AFB90
:100F80002020ADF8040003208DF8060018208DF80D
:100F9000070001A95F4800F005FC4020ADF80400FF
:100FA00001A95C4800F0FEFB8020ADF8040001A917
:100FB000584800F0F7FB1020ADF804008DF807004A
:100FC00001A9544800F0EEFB1021524800F095FCB6
:100FD0000020ADF808004FF48270ADF80A00002040
:100FE000ADF80C00ADF80E00ADF810004FF4007035
:100FF000ADF812003820ADF814000020ADF816004E
:101000000720ADF8180002A9434801F0DDFE0121D8
:10101000414801F07EFF07B000BD00EB80025206A0
:10102000110E01E04A1ED1B20029FBDC704710B559
:10103000044600BF0221384801F0EFFF0028F9D034
:101040002146354801F096FF00BF0121324801F0EA
:10105000E4FF0028F9D0304801F08EFFC0B210BD87
:101060002DE9F0410546002400260027082D15D261
:10107000DFE805F00406080A0C0E10128E260EE0BA
:10108000CE260CE09E260AE0DE2608E0AE2606E02C
:10109000EE2604E0BE2602E0FE2600E000BF00BF10
:1010A00010211C4800F02BFC3046FFF7C0FF04461F
:1010B0000120FFF7B2FF7E20FFF7B9FF04464FF68D
:1010C000FF7000EA04247E20FFF7B1FF07463C438F
:1010D0001021104800F011FCC4F3CB042046BDE8F9
:1010E000F08110B5044600BF02210B4801F095FFC6
:1010F0000028F9D02146084801F03CFF00BF01213B
:10110000054801F08AFF0028F9D0034801F034FFB8
:1011100010BD0000000801400030014000B587B05C
:1011200001210C2000F076FA0121084600F072FA45
:101130000121C80300F07BFA0121484800F001FCBE
:101140000820ADF8040003208DF8060018208DF863
:10115000070001A9424800F025FB1020ADF804006B
:1011600001A93F4800F01EFB2020ADF8040001A9B2
:101170003B4800F017FB4FF48050ADF804001020FE
:101180008DF8070001A9374800F00CFB4FF480519F
:10119000344800F0B2FB0020ADF808004FF4827034
:1011A000ADF80A000020ADF80C00ADF80E00ADF867
:1011B00010004FF40070ADF812003820ADF81400A4
:1011C0000020ADF816000720ADF8180002A9264847
:1011D00001F0FAFD0121244801F09BFE07B000BD9B
:1011E00000EB80025206110E01E04A1ED1B2002926
:1011F000FBDC704710B5044600BF02211A4801F01D
:101200000CFF0028F9D02146174801F0B3FE00BFBB
:101210000121154801F001FF0028F9D0124801F022
:10122000ABFEC0B210BD70B504464FF480510D48FE
:1012300000F065FBC4F38705C02000EA8416002097
:10124000FFF7D8FF2846FFF7D5FF3046FFF7D2FF5C
:101250004FF48051034800F050FB70BD0002300095
:10126000000C014000080140003C004031490143AE
:10127000314A1160704770B5002100230F22C478F5
:101280000CB32D4C246804F4E064C4F5E064210A36
:10129000C1F10403CA40447804FA03F1847814408D
:1012A00021430901254C0678A155047804F01F0557
:1012B0000124AC4005786D114FF0E02606EB850562
:1012C000C5F8004109E0047804F01F050124AC4092
:1012D0001B4D0678761145F8264070BD194A0A4024
:1012E0000243154B1B1F1A60704739B1124A121D79
:1012F00012680243104B1B1D1A6006E00E4A121DB5
:10130000126882430C4B1B1D1A607047042808D1D9
:101310004FF0E021096941F004014FF0E022116132
:1013200007E04FF0E021096921F004014FF0E022CD
:10133000116170470000FA050CED00E000E400E0E8
:1013400080E100E080FFFF1FDB48006840F0010003
:10135000D949086008464068D8490840D6494860DD
:1013600008460068D6490840D34908600846006826
:1013700020F4802008600846406820F4FE004860A1
:101380004FF41F0088607047CB49096821F4803111
:10139000C94A11601146096821F480211160B0F535
:1013A000803F03D0B0F5802F0ED106E0C249096816
:1013B00041F48031C04A116007E0BF49096841F437
:1013C000A021BD4A116000E000BF00BF704710B50A
:1013D00001460022002300204A11012A02D1B64C06
:1013E000236806E0022A02D1B34C236A01E0B24C22
:1013F000636A01F01F02012494401C4201D00120C5
:1014000000E0002010BD70B500240025002600BFBC
:101410003120FFF7DCFF0646641CB4F5A06F01D055
:10142000002EF5D03120FFF7D2FF08B1012500E0F2
:101430000025284670BD014600209F4A106820F014
:10144000F80040EAC100106070479E49086070478C
:1014500002460020984B586820F47C1042EA0103B1
:101460001843954B58607047964908667047014687
:101470000020914A506820F00300084350607047F4
:101480008D48406800F00C007047014600208A4AF1
:10149000506820F0F000084350607047014600207B
:1014A000854A506820F4E060084350607047014668
:1014B0000020814A506820F4605040EAC10050602A
:1014C000704729B17C4A527A02437B4B5A7204E03E
:1014D000794A527A8243784B5A7270477A49086047
:1014E000704701460020744A506820F44040084389
:1014F000506070470021754A11706F4A82F82010C1
:10150000012802D0042808D103E001216F4A11709C
:1015100004E005216D4A117000E000BF00BF704774
:101520006B49086070476449096A0143624A116265
:101530007047674944390860704730B50021002280
:10154000002400235C4D6D6805F00C0121B10429D5
:1015500005D0082923D105E05E4D056022E05D4DF0
:1015600005601FE0544D6D6805F47012524D6D68B2
:1015700005F48034022505EB92421CB9564D5543C3
:1015800005600BE04C4D6D6815F4003F03D0524DE3
:101590005543056002E04F4D5543056002E04D4D57
:1015A000056000BF00BF444D6D6805F0F0010909FA
:1015B0004A4D6B5C0568DD4045603F4D6D6805F444
:1015C000E061090A454D6B5C4568DD4085603A4D38
:1015D0006D6805F46051C90A404D6B5C4568DD409B
:1015E000C560354D6D6805F44041890B3C4D6B5C21
:1015F000C568B5FBF3F5056130BD29B12E4A5269C6
:1016000002432D4B5A6104E02B4A526982432A4B14
:101610005A61704729B1284A92690243264B9A6160
:1016200004E0254A92698243234B9A61704729B1AD
:10163000214AD2690243204BDA6104E01E4AD26992
:1016400082431D4BDA61704729B11B4AD2680243BD
:10165000194BDA6004E0184AD2688243164BDA600C
:10166000704729B1144A12690243134B1A6104E00E
:10167000114A12698243104B1A617047144940396C
:10168000086070470F49C86470470B49C8717047BC
:101690000948406A40F08070074948627047014637
:1016A0000020054A92680A4201D0012000E0002093
:1016B0007047014988727047001002400000FFF82F
:1016C000FFFFF6FE00004242D800424220100240D6
:1016D0008004424200127A0000093D0060000020B0
:1016E0007000002010B50446CA48844208D1012188
:1016F0000420FFF7A9FF00210420FFF7A5FF46E023
:10170000C548844208D101210820FFF79DFF002130
:101710000820FFF799FF3AE0C048844208D1012130
:101720001020FFF791FF00211020FFF78DFF2EE022
:10173000BB48844208D101212020FFF785FF00210A
:101740002020FFF781FF22E0B648844208D1012122
:101750004020FFF779FF00214020FFF775FF16E0DA
:10176000B148844208D101218020FFF76DFF00219C
:101770008020FFF769FF0AE0AC48844207D10121CD
:101780008015FFF761FF0021A015FFF75DFF10BD79
:1017900010B501210846FFF757FF00210120FFF790
:1017A00053FF10BD2DE9F041024600250026002020
:1017B00000230024002791F803C00CF00F0591F8D6
:1017C00003C01CF0100F03D091F802C04CEA0505CD
:1017D00091F800C0BCF1000F31D0146800202BE05C
:1017E0004FF0010C0CFA00F3B1F800C00CEA03064C
:1017F0009E4220D183004FF00F0C0CFA03F7BC433C
:1018000005FA03FC4CEA040491F803C0BCF1280F6C
:1018100006D14FF0010C0CFA00FCC2F814C00AE02B
:1018200091F803C0BCF1480F05D14FF0010C0CFA40
:1018300000FCC2F810C0401C0828D1D31460B1F8D5
:1018400000C0BCF1FF0F34DD546800202EE000F131
:10185000080C4FF0010808FA0CF3B1F800C00CEACC
:1018600003069E4221D183004FF00F0C0CFA03F7C0
:10187000BC4305FA03FC4CEA040491F803C0BCF134
:10188000280F05D100F1080C08FA0CF8C2F81480F2
:1018900091F803C0BCF1480F07D100F1080C4FF0DC
:1018A000010808FA0CF8C2F81080401C0828CED3B2
:1018B0005460BDE8F0814FF6FF7101800221817014
:1018C0000421C17070470246002093680B4201D08A
:1018D000012000E0002070470146886880B2704710
:1018E00002460020D3680B4201D0012000E0002016
:1018F00070470146C86880B2704701617047416116
:1019000070470AB1016100E041617047C1607047F2
:101910004FF480320A438261816182618269826907
:10192000704702460020424B18684FF680731840FB
:1019300040EA021008433E4B186070473D49C861B9
:101940007047F0B50A46002300240021002500F06E
:101950000046B6F1004F02D1354EF16901E0344E38
:101960007168C0F3034583B200F44016B6F5401F1A
:1019700008D121F070612E4E766826F070662C4FEB
:101980007E6012E000F48016B6F5801F06D10326B3
:1019900006FA05F4A14341F0706106E0460D3601F8
:1019A00003FA06F6B14341F0706122B1460D3601EB
:1019B00003FA06F6314300F00046B6F1004F02D1BB
:1019C0001B4EF16101E01A4E7160F0BD30B500228E
:1019D0008B071C0F0F2303FA04F2154B08338C10EE
:1019E00053F824309343124C08348D1044F82530BA
:1019F00023468C1053F824308C07240F00FA04F48B
:101A000023430B4C08348D1044F8253030BD0A496F
:101A10000860704700080140000C014000100140C0
:101A20000014014000180140001C0140002001404A
:101A30000000014000002042DC0020420020444918
:101A40000860091D0860091D0860091D08604148FB
:101A50003F4914310860704700213D498279002ACE
:101A60003AD00A46126803689A430B461A600A1D68
:101A7000126803689A430B1D1A60027911440A68C0
:101A800003681A430A60324A0832126803689A43AC
:101A90002F4B08331A601A1D126803689A432C4BA7
:101AA0000C331A604279102A0ED11A1F126803688B
:101AB0001A43274B08331A601A1D126803681A4329
:101AC000234B0C331A600DE02149427911440A6816
:101AD00003681A430A6005E0027911440A68036842
:101AE0009A430A6070470021016001710C21417125
:101AF0000021817170471649103109680143144A69
:101B000010321160704701460020114A14321268E9
:101B10000A4201D0012000E0002070470C49143136
:101B200008607047014600200022094B1B6803EA49
:101B30000102074B14331B680B4202D00AB101208B
:101B400000E000207047024914310860704700002F
:101B500000040140FFFF0F0010B50446FB4884421B
:101B600009D101218803FFF76FFD00214FF4804068
:101B7000FFF76AFD32E0F648844209D101214804AA
:101B8000FFF76FFD00214FF40030FFF76AFD25E0FD
:101B9000F048844209D101218804FFF762FD002149
:101BA0004FF48020FFF75DFD18E0EB48844209D137
:101BB0000121C804FFF755FD00214FF40020FFF775
:101BC00050FD0BE0E548844208D101210805FFF7EC
:101BD00048FD00214FF48010FFF743FD10BD2DE9B3
:101BE000F04786B005460E460024A24600BFA14637
:101BF0000027B08900B100BF2F462C8A4CF6FF7039
:101C00000440F08804432C82AC894EF6F310044063
:101C1000B08831890843718908430443AC81AC8A98
:101C20004FF6FF400440B0890443AC8201A8FFF79F
:101C300084FCC648874202D1DDF810A001E0DDF83F
:101C40000CA0A88910F4004F08D00AEBCA0000EBE2
:101C50000A1031684900B0FBF1F807E00AEBCA004E
:101C600000EB0A1031688900B0FBF1F86420B8FB82
:101C7000F0F004012009642101FB1089A88910F407
:101C8000004F08D0322000EBC900B0FBF1F000F0AB
:101C90000700044308E0322000EB09106421B0FB88
:101CA000F1F000F00F0004432C8106B0BDE8F0878E
:101CB0004FF41651016000218180C18001810C2107
:101CC000418100218181704710B502460020108AB1
:101CD0004FF2FF0318400B884C8823438C88234322
:101CE000CC8823431843108210BD0021018041801D
:101CF0008180C180704721B1828942F40052828183
:101D000004E082894DF6FF731A4082817047F0B576
:101D100003460024002600250020A1F510676A3F35
:101D200000D100BF1846C1F3421401F01F0601277D
:101D300007FA06F5012C01D10C3004E0022C01D188
:101D4000103000E014301AB107682F43076002E03A
:101D50000768AF430760F0BD1AB1838A0B438382E3
:101D600002E0838A8B4383827047028A4FF6F073C6
:101D70001A400282028A0A430282704782894FF225
:101D8000FF731A40828182890A438281704721B1A0
:101D9000828942F00202828104E082894FF6FD735B
:101DA0001A4082817047028A4FF6DF731A4002821E
:101DB000028A0A430282704721B1028A42F48042B9
:101DC000028204E0028A4BF6FF731A4002827047D7
:101DD000C1F308028280704701468888C0F308007A
:101DE0007047818941F0010181817047028BD2B235
:101DF0000283028B42EA012202837047028B02F4C3
:101E00007F420283028B0A430283704721B1828A98
:101E100042F02002828204E0828A4FF6DF731A4089
:101E20008282704721B1828A42F01002828204E0ED
:101E3000828A4FF6EF731A408282704721B1828AFC
:101E400042F00802828204E0828A4FF6F7731A4059
:101E50008282704721B1828942F40042828103E08C
:101E60008289C2F30E028281704721B1828A42F4D4
:101E70000062828204E0828A4FF2FF731A408282FB
:101E80007047828A4FF6FB731A408282828A0A4325
:101E90008282704721B1828A42F00202828204E08B
:101EA000828A4FF6FD731A408282704702460020F4
:101EB000B1F5007F00D100BF13880B4201D0012093
:101EC00000E00020704701F40072B2F5007F00D1FD
:101ED00000BFCA430280704770B502460024002349
:101EE00000250020A1F510666A3E00D100BFC1F3B5
:101EF000421501F01F03012606FA03F3012D02D15A
:101F00009689334006E0022D02D1168A334001E063
:101F1000968A33400C12012606FA04F416883440DF
:101F200013B10CB1012000E0002070BD10B50022FB
:101F30000023A1F510646A3C00D100BF0A120124FD
:101F40009440A3B2DC43048010BD0000003801407F
:101F50000044004000480040004C00400050004059
:101F600010B50446FE48844208D10121C014FFF791
:101F70006BFB0021E014FFF767FBC4E0B4F1804F76
:101F800008D101210846FFF76CFB00210120FFF773
:101F900068FBB8E0F348844208D101210220FFF732
:101FA00060FB00210220FFF75CFBACE0EE488442BE
:101FB00008D101210420FFF754FB00210420FFF782
:101FC00050FBA0E0E948844208D101210820FFF736
:101FD00048FB00210820FFF744FB94E0E4488442DA
:101FE00008D101211020FFF73CFB00211020FFF752
:101FF00038FB88E0DF48844208D101212020FFF728
:1020000030FB00212020FFF72CFB7CE0DA488442E3
:1020100008D101214014FFF717FB00216014FFF7DE
:1020200013FB70E0D548844209D10121C804FFF7B1
:102030000BFB00214FF40020FFF706FB63E0D048C4
:10204000844209D101210805FFF7FEFA00214FF46F
:102050008010FFF7F9FA56E0CA48844209D10121FD
:102060004805FFF7F1FA00214FF40010FFF7ECFAF2
:1020700049E0C548844208D101214020FFF7F1FA28
:1020800000214020FFF7EDFA3DE0C048844208D12E
:1020900001218020FFF7E5FA00218020FFF7E1FA17
:1020A00031E0BB48844208D101218015FFF7D9FAFD
:1020B0000021A015FFF7D5FA25E0B648844209D1E2
:1020C00001210804FFF7C0FA00214FF48030FFF728
:1020D000BBFA18E0B048844209D101214804FFF757
:1020E000B3FA00214FF40030FFF7AEFA0BE0AB4833
:1020F000844208D101218804FFF7A6FA00214FF499
:102100008020FFF7A1FA10BD00220288944B98426C
:102110000ED0994B98420BD0B0F1804F08D0914B24
:10212000984205D0904B984202D0904B984204D1EF
:102130004FF68F731A404B881A438D4B984207D045
:102140008C4B984204D04FF6FF431A40CB881A4379
:1021500002808B8883850B880385814B98420BD046
:10216000854B984208D08B4B984205D08A4B9842B9
:1021700002D08A4B984201D10B7A038601238382D5
:10218000704770B5002400220023058C4FF6FE76C0
:1021900035400584028C8388048B4FF68F752C4064
:1021A000B51E2C400D882C43751E2A400D892A43EC
:1021B0004D882A436A4DA8420BD06F4DA84208D0E3
:1021C000744DA84205D0744DA84202D0734DA84268
:1021D00013D14FF6F7752A404D892A434FF6FB7508
:1021E0002A408D882A434FF6FF652B404FF6FF5556
:1021F0002B408D892B43CD892B4383800483CD884D
:102200008586028470BD70B5002400220023058CF1
:102210004FF6EF7635400584028C8388048B48F6B0
:10222000FF752C404FF6FF452C400D884FF6FF768A
:1022300006EA05252C434FF6DF752A400D8906EA8C
:1022400005152A434D8806EA05152A43444DA84240
:1022500002D0494DA8421DD14FF67F752A404D89C5
:102260004FF6FF7606EA05152A434FF6BF752A405A
:102270008D8806EA05152A434FF6FF352B404FF2AD
:10228000FF752B408D8906EA85052B43CD8906EA2B
:1022900085052B4383800483CD880587028470BD28
:1022A00070B5002400220023058C4FF6FF663540F0
:1022B0000584028C8388848B4FF68F752C404FF6F3
:1022C000FC752C400D882C434FF6FF552A400D8994
:1022D0004FF6FF7606EA05252A434D8806EA0525CE
:1022E0002A431F4DA84202D0234DA8421DD14FF2D0
:1022F000FF752A404D894FF6FF7606EA05252A43E9
:102300004FF6FF352A408D8806EA05252A434EF60A
:10231000FF752B404DF6FF752B408D8906EA05159C
:102320002B43CD8906EA05152B4383808483CD8812
:102330008587028470BD70B5002200230024058CBF
:102340004EF6FF7635400584038C8488828B48F6F0
:10235000FF752A404FF6FF452A400D8820E0000017
:10236000002C01400004004000080040000C004028
:10237000001000400014004000340140004C0140B7
:10238000005001400054014000180040001C004073
:10239000002000400040014000440140004801404E
:1023A0004FF6FF7606EA05252A434DF6FF752B40CA
:1023B0000D8906EA05352B434D8806EA05352B4382
:1023C000FA4DA84202D0FA4DA84208D14BF6FF754B
:1023D0002C408D894FF6FF7606EA85152C438480C4
:1023E0008283CD88A0F84050038470BD828B4FF269
:1023F000FF331A408283828B4FF6FF7303EA012377
:102400001A4382837047F0B50C461546002200211E
:102410000026078C4EF6FF7C07EA0C070784828BA8
:10242000018C4FF6FF7707EA043640F6FF473A4043
:102430004FF6FF7707EA05273A434FF6FF7707EA9B
:1024400003373A43D94FB8420ED0D94FB8420BD0D8
:10245000B0F1804F08D0D74FB84205D0D64FB84220
:1024600002D0D64FB84206D14DF6FF77394046F438
:102470008057394305E047F6FF57394044F4805709
:10248000394382830184F0BD828B4FF6F3731A4087
:102490008283828B0A4382837047F0B50C461546CF
:1024A000002200210026078C4FF6FF6C07EA0C077C
:1024B0000784828B018C4FF6FF7707EA04264FF6DC
:1024C0000C773A404FF6FF7707EA03172F433A435A
:1024D000B64FB8420ED0B64FB8420BD0B0F1804FD5
:1024E00008D0B44FB84205D0B34FB84202D0B34F72
:1024F000B84206D14FF6FF57394046F4807739434A
:1025000005E04FF2FF57394044F480773943828326
:102510000184F0BD028B4FF2FF331A400283028B1D
:102520004FF6FF7303EA01231A4302837047F0B5A5
:102530000C461546002200210026078C4FF6EF7C42
:1025400007EA0C070784028B018C4FF6FF7707EA36
:10255000041640F6FF473A404FF6FF7707EA033785
:102560003A434FF6FF7707EA05273A438F4FB842C1
:102570000ED08F4FB8420BD0B0F1804F08D08D4FA6
:10258000B84205D08C4FB84202D08C4FB84206D129
:102590004FF6DF77394046F01007394305E04FF634
:1025A0005F77394044F01007394302830184F0BD5E
:1025B000028B4FF6F3731A400283028B0A430283A5
:1025C0007047F0B50C46154600220021068C4FF6E8
:1025D000FE773E400684028B018C4FF60C7632402B
:1025E0007E1C06EA03162E433243704EB0420ED0D4
:1025F0006F4EB0420BD0B0F1804F08D06D4EB0425C
:1026000005D06D4EB04202D06C4EB04206D14FF6AE
:10261000FD76314044F00106314305E04FF6F57692
:10262000314044F00106314302830184F0BD70B5AE
:1026300005460C465D4885420ED05D4885420BD06C
:10264000B5F1804F08D05B48854205D05A48854295
:1026500002D05A48854200D100E000BF208850B91E
:102660002389A28861882846FFF7ABFFE1882846C6
:10267000FFF79EFF25E0208804280AD12389A2883D
:1026800061882846FFF753FFE1882846FFF742FF9D
:1026900017E0208808280AD12389A2886188284663
:1026A000FFF7FBFEE1882846FFF7EEFE09E02389ED
:1026B000A28861882846FFF7A6FEE1882846FFF732
:1026C00095FE70BD2DE9F04105460C460026012718
:1026D000608808B9022600E00026A088012801D100
:1026E000022700E001272088A0B92389A2886188F9
:1026F0002846FFF766FFE1882846FFF759FF238940
:102700003A4631462846FFF712FFE1882846FFF790
:1027100001FF13E02389A28861882846FFF707FF9D
:10272000E1882846FFF7F6FE23893A4631462846D7
:10273000FFF747FFE1882846FFF73AFFBDE8F08141
:102740000A884B881A438B881A43CB881A430B8913
:102750001A434B891A438B891A43A0F844207047C7
:102760004FF6FF71818000210180C180418001729C
:1027700070470021018041808180C18001814181B9
:102780008181C181704700210180418001218180C8
:102790000021C1800181704700210180418081803A
:1027A000C18001814181818170470000002C01407E
:1027B000003401400004004000080040000C0040CC
:1027C00021B1028842F00102028004E002884FF643
:1027D000FE731A400280704731B1B0F8442042F4D1
:1027E0000042A0F8442005E0B0F84420C2F30E02F5
:1027F000A0F8442070471AB183890B43838102E01B
:1028000083898B43838170478182704741EA020349
:10281000A0F8483070471AB183890B43838102E0E6
:1028200083898B438381704701894FF6F872114089
:10283000018170470A46002101894FF68F731940C4
:1028400011430181704730B504460D4629462046A4
:10285000FFF7F0FF208940F00700208130BD2DE90F
:10286000F04104460D4616461F46602D06D13B46F4
:10287000012231462046FFF75AFE05E03B46012281
:1028800031462046FFF79DFE29462046FFF7D2FF3E
:10289000208940F007002081BDE8F08130B50C466A
:1028A00000210189C9B24FF6FF7505EA03251543DA
:1028B00025432943018130BD2DE9F04105460E46EF
:1028C00017469846002443463A4631462846FFF7C5
:1028D000E5FF2C894FF6F870044044F007044FF6EA
:1028E0008F70044044F070042C81BDE8F081F0B595
:1028F00004460D4616461F463B46324629462046AC
:10290000FFF7CCFF208940F480402081F0BD018595
:10291000828270470A46002101884FF68F73194062
:10292000114301807047F0B50C4615461E46002144
:10293000002200230189028B038C4FF6F87739407F
:1029400021434FF6FC473A4040F201173A434FF615
:10295000DD773B404FF6FF7707EA06172F433B43EF
:10296000018102830384F0BD0A460021018B4FF6EA
:102970008F7319401143018370470A460021018B70
:1029800048F6FF7319404FF6FF7303EA0223194319
:10299000018370470A460021818B4FF68F731940DF
:1029A0001143818370470A460021818B48F6FF73EB
:1029B00019404FF6FF7303EA0223194381837047DE
:1029C00021B1028842F08002028004E002884FF6C2
:1029D0007F731A400280704721B1828842F004025E
:1029E000828004E082884FF6FB731A408280704731
:1029F00021B1828842F00802828004E082884FF68A
:102A0000F7731A408280704721B1828842F0010238
:102A1000828004E082884FF6FE731A4082807047FD
:102A20000A460021018B4FF6F773194011430183C9
:102A300070470A460021018B4FF2FF7319404FF691
:102A4000FF7303EA02231943018370470A460021FA
:102A5000818B4FF6F77319401143818370470A4603
:102A60000021818B4FF2FF7319404FF6FF7303EA89
:102A700002231943818370470A460021018B4FF6D8
:102A8000FB7319401143018370470A460021018BF3
:102A90004FF6FF3319404FF6FF7303EA0223194341
:102AA000018370470A460021818B4FF6FB73194062
:102AB0001143818370470A460021818B4FF6FF3313
:102AC00019404FF6FF7303EA0223194381837047CD
:102AD0000A460021018B4FF67F7319401143018391
:102AE00070470A460021018BC1F30E014FF6FF73B8
:102AF00003EA02231943018370470A460021818BB0
:102B00004FF67F7319401143818370470A460021B5
:102B1000818BC1F30E014FF6FF7303EA02231943C1
:102B2000818370470A460021018C4FF6FD731940DE
:102B30001143018470470A460021018C4FF6F77358
:102B400019401143018470470A460021018C4FF659
:102B5000DF7319404FF6FF7303EA02131943018430
:102B600070470A460021018C4FF67F7319404FF6DB
:102B7000FF7303EA02131943018470470A460021D8
:102B8000018C4FF6FF5319404FF6FF7303EA0223FF
:102B90001943018470470A460021018C4FF2FF73EC
:102BA00019404FF6FF7303EA02231943018470476B
:102BB0000A460021018C4DF6FF7319404FF6FF7352
:102BC00003EA023319430184704730B5002301241E
:102BD0008C40A3B2048C9C430484048C02FA01F55B
:102BE000ADB22C43048430BD30B5002304248C40A6
:102BF000A3B2048C9C430484048C02FA01F5ADB2A8
:102C00002C43048430BD70B50346002000241846D0
:102C1000183001258D40ACB21D8CA5431D8409B12F
:102C2000082909D100EB6100056825F070050560F1
:102C30000568154305600EE00D1FC5F34E052844D9
:102C4000056825F4E045056005684FF6FF7606EA5D
:102C500002263543056070BD21B1028842F00202B0
:102C6000028004E002884FF6FD731A40028070472C
:102C700021B1028842F00402028004E002884FF68B
:102C8000FB731A400280704721B1828842F08002B3
:102C9000828004E082884FF67F731A4082807047FA
:102CA00002884FF6F7731A40028002880A430280B6
:102CB000704782884FF68F731A40828082880A4359
:102CC0008280704702894FF6F8731A4002810289A8
:102CD0000A430281704702894FF67F731A400281CE
:102CE00002890A4302817047818470478185704759
:102CF000818670470187704781877047A0F8401030
:102D0000704702884FF6FF431A40028002880A4348
:102D1000028070470146888E70470146088F7047D1
:102D20000146888F70470146B1F840007047014660
:102D3000888C70470146088D704702460020138A30
:102D40000B4201D0012000E000207047CA430282FC
:102D5000704730B50246002000230024158A05EA9A
:102D60000103958905EA010413B10CB1012000E0CB
:102D7000002030BDCA4302827047000010B50446EF
:102D8000BE48844208D101218014FEF75DFC002179
:102D9000A014FEF759FC16E0B948844208D101217D
:102DA0000014FEF75EFC00212014FEF75AFC0AE036
:102DB000B448844207D10121C013FEF752FC002120
:102DC000E013FEF74EFC10BD10B50022028802F49D
:102DD00041520B884C8823438C882343CC8823435F
:102DE0000C8923434C8923438C892343CC89234377
:102DF0001A430280838B4FF2FF74234083830B8A34
:102E0000038210BD2DE9F04F85B005460C464FF00A
:102E1000000902274FF000084FF0010B0026B246D0
:102E2000A88B4FF240010840A88302202884B5F8FF
:102E30001C90A068022801D100BF38E0A08810B91A
:102E40004FF0010B01E04FF0020B8D48854200D19D
:102E500000E000BF6846FEF770FBDDF800A0E088E8
:102E6000B0F5007F0AD14FEA1A2000EB8000400045
:102E7000A168B0FBF1F0401D86B20BE04FEA4B10A9
:102E8000BAFBF0F000EB80004000A168B0FBF1F06D
:102E9000401D86B20A20B6FBF0F606F00108A6EB4C
:102EA0000800C0F34F074FF6FF7000EA0828022F12
:102EB00001DBFF2F02DD02274FF00008E08840EA27
:102EC000080038432884A088A18908436188084302
:102ED0002188084340F4006040EA0909A5F81C90E5
:102EE00005B0BDE8F08F0021018041808180C18064
:102EF000018141818181C1810721018270470021C7
:102F0000018041808180C180022181600021818116
:102F1000704721B1028842F04002028004E002883A
:102F20004FF6BF731A400280704721B1828B42F482
:102F30008062828304E0828B4FF6FF331A408283E3
:102F4000704730B5002400230C110125A540ABB219
:102F50001AB185881D43858002E085889D43858060
:102F600030BD1AB183880B43838002E083888B4392
:102F70008380704781817047014688897047A1F539
:102F80007E42FF3A04D0028842F48072028004E05C
:102F900002884FF6FF631A400280704721B1828891
:102FA00042F00402828004E082884FF6FB731A40EC
:102FB0008280704702884FF2FF731A4002800288B5
:102FC0000A4302807047018841F4805101807047B4
:102FD00021B1028842F40052028004E002884DF6DA
:102FE000FF731A400280704702460020012901D079
:102FF000108B00E0908A70470146088A7047B1F54F
:10300000804F04D1028842F48042028004E00288AA
:103010004BF6FF731A400280704702460020138966
:103020000B4201D0012000E000207047CA4302811A
:103030007047F0B50246002000240023002501F06F
:103040000F070126BE40B4B20B1101269E40B3B259
:10305000968806EA03051689264202D00DB10120A2
:1030600000E00020F0BD10B5002201F00F040123A4
:10307000A3409AB2D343038110BD00000030014049
:1030800000380040003C004000210020664A1268E1
:1030900042F48032644B1A6000BF634A126802F443
:1030A0000030491C0028F8D05F4A126812F4003F33
:1030B00001D0012000E00020012842D15B4A1268C3
:1030C00042F01002594B1A601A46126822F00302AD
:1030D0001A601A46126842F002021A60524A526896
:1030E000514B5A601A4652685A601A46526842F466
:1030F00080625A601A46526822F47C125A601A465C
:10310000526842F4E8125A601A46126842F080721D
:103110001A6000BF444A126812F0007FFAD0424A97
:10312000526822F00302404B5A601A46526842F03D
:1031300002025A6000BF3C4A526802F00C02082AA0
:10314000F9D1704710B5FFF79FFF10BD10B5364895
:10315000006840F00100344908600846406834497E
:1031600008403149486008460068324908402E4905
:1031700008600846006820F480200860084640681F
:1031800020F4FE0048604FF41F008860FFF7DAFF6C
:103190004FF000602849086010BD10B500210020E4
:1031A0000022214B5B6803F00C0121B1042906D0F9
:1031B000082928D107E0214B214C236027E01F4B31
:1031C0001F4C236023E0184B5B6803F47010164B10
:1031D0005B6803F48032022303EB904022B9194B61
:1031E0004343174C23600DE00F4B5B6813F4003F23
:1031F00004D0144B4343124C236003E00F4B434372
:103200000F4C236003E00D4B0D4C236000BF00BF4B
:10321000054B5B68C3F303130B4CE15C084B1B6865
:10322000CB40074C236010BD00100240002002403C
:103230000000FFF8FFFFF6FE08ED00E000127A0044
:103240007400002000093D0078000020D2B201E0A7
:1032500000F8012B491EFBD270470022F6E710B59B
:1032600013460A4604461946FFF7F0FF204610BDF4
:10327000F0B480EA0102D40F4200B2EB410F02D257
:103280000246084611464A0042D0C30DDDB2C1F3E2
:10329000C752AD1A202D35DAC1F3160141F40002F0
:1032A00004B15242C5F1200602FA06F12A41104447
:1032B000B3EBD05F23D0C4B1012DA0EBC35009DC28
:1032C000F0BC4FF0004202EAC35200F50000DBB24E
:1032D00000F001BA400000F1807000EBC350A0F193
:1032E000807040EAD170490009E0490841EAC071A4
:1032F000A0EBC35000F50000400800EBC350F0BC49
:1033000000F0E0B96142012202EB4101001BF6E747
:10331000F0BC704781F00041AAE780F00040A7E7C9
:1033200080EA010210B502F00043400026D04A00B6
:1033300023D04FEA106101EB1261C0F35600C2F3D3
:10334000560240F4000042F40002A0FB0220A1F16A
:103350007F014FEA0040140401D000F1010050EA5F
:10336000124001D44000491EC2B20C0604EBD0103A
:10337000401C4008802A02D003E0002010BD20F04D
:103380000100002900DA0020184310BD2DE9FE4F8E
:1033900081EA030404F0004421F0004100944FF05E
:1033A000000B23F0004350EA010402D052EA030468
:1033B00004D10020014603B0BDE8F08FC3F30A54E6
:1033C000C1F30A552C44A4F2F3340194A0FB025437
:1033D000C1F3130141F48011C3F3130343F48013C9
:1033E00001FB024400FB034E840A970A44EA81541D
:1033F00047EA8357A4FB076802958D0A05FB0785FA
:103400004FEA932C04FB0C542705029D4FEA065803
:1034100047EA1637B5EB08056EEB070C870E920EE0
:1034200047EA811742EA8312A7FB0201B6EB0B01C0
:1034300064EB00042B0D43EA0C335E1844EB1C5084
:10344000DA465146E7FB0201C5F313044FEA0B339A
:1034500043EA14534FEA0432019C43EA0603A4F101
:103460000C040294009CCDE900B400F06EF9A2E7D0
:103470002DE9F04D81EA030404F0004B21F00045F2
:1034800014464FF0000A23F0004150EA050220D014
:1034900054EA01021DD0C5F30A570246C5F31303CF
:1034A000C1F31300C1F30A5640F4801543F48013AE
:1034B000A7EB0608101BD64608F2FD3873EB050093
:1034C00002D308F1010801E092185B41B8F1000F46
:1034D00003DA00200146BDE8F08D00204FF4801192
:1034E000064684460EE0171B73EB050705D3121B37
:1034F00063EB050306434CEA010C49084FEA300030
:1035000092185B4150EA0107EDD152EA030012D054
:1035100082EA040083EA0501084303D100224FF048
:10352000004308E0101BAB4102D20122002302E05D
:103530006FF0010253101AEB06004CEB085110EB30
:103540000A0041EB0B01BDE8F04D00F0F1B8962305
:103550000022114600F0BFB80EB540F2334102918F
:103560000021CDE900110A460B4600F0EEF803B049
:1035700000BD20F00040C10DC0F3160040F4000073
:103580007F2901DA00207047962903DCC1F19601FA
:10359000C8407047963988407047C1F30A5210B549
:1035A000C1F3130140F2FF3341F480119A4201DA72
:1035B000002010BD40F233439A42A2F2334203DCB2
:1035C000524200F06FF810BD904010BD00F0004274
:1035D00030F000400AD0C10D01F56071C0F3160053
:1035E00042EA0151C20840071143704700200146DA
:1035F0007047000030B5002904DB4FF00044404222
:1036000064EB0101002B04DB4FF00044524264EBF9
:1036100003038B4208BF824230BD000030B5002951
:1036200004DB4FF00044404264EB0101002B04DB5B
:103630004FF00044524264EB0303994208BF9042AA
:1036400030BD000001F0004330B421F0004150EAE9
:10365000010206D00A0DA2F56072C1F31301002A1F
:1036600002DC30BC00207047440F44EAC104C100B2
:10367000E01830BC00EBC25000F024B8002801DB99
:10368000C0F10040002901DBC1F1004181427047D7
:10369000002801DBC0F10040002901DBC1F100413D
:1036A00088427047202A04DB203A21FA02F00021E8
:1036B000704721FA02F3D040C2F120029140084342
:1036C000194670470029A8BF7047401C490008BF31
:1036D00020F00100704710B4B0FA80FC00FA0CF042
:1036E00050EA010404BF10BC704749B1CCF120047A
:1036F00021FA04F411FA0CF118BF01212143084307
:10370000A3EB0C01CB1D0106000A002BBEBF00205D
:1037100010BC704700EBC35010440029A4BF10BC7C
:103720007047401C490008BF20F0010010BC7047E2
:1037300010B5002B08DA401C41F1000192185B41E2
:103740001A4301D120F0010010BD2DE9F04D924641
:103750009B4611B1B1FA81F202E0B0FA80F2203258
:10376000904600F057F804460F4640EA0A0041EA46
:103770000B0153465A46084303D120463946BDE85B
:10378000F08D114653EA010015D0C8F140025046B1
:10379000FFF788FF05460E4650465946424600F060
:1037A00039F8084301D0012000E00020054346EA33
:1037B000E0762C4337430A984FEA4453A0EB0800C5
:1037C0004FEAD4240A304FF0000244EA47544FEA4B
:1037D000D72502D500200146D1E70105101969411E
:1037E000DDE9084500196941BDE8F04DA0E700009A
:1037F000064C074D06E0E06840F0010394E807003E
:1038000098471034AC42F6D3FCF796FC44390008D4
:1038100064390008202A04DB203A00FA02F1002073
:1038200070479140C2F1200320FA03F319439040FE
:10383000704700000FB4054B10B503A9044A029865
:1038400000F017F810BC5DF814FB000081060008BA
:103850008800002002E008C8121F08C1002AFAD11F
:1038600070477047002001E001C1121F002AFBD100
:1038700070472DE9F84F994692468846054600273D
:1038800059E0252801D0514623E0002315F8011FF7
:1038900018462E2915D115F8011F04232A290DD009
:1038A0006FF02F022978A1F13004092C09D800EB20
:1038B000800002EB400008446D1CF3E758F8040B4D
:1038C0006D1C2A7872B3632A08D0732A10D051462F
:1038D00010464A46904707F101072BE018F8042BE1
:1038E0008DF8002000218DF801106E46012103E0C3
:1038F00058F8046B4FF0FF315A074FF0000401D421
:1039000009E0641C84420BDA8C42FADB325D002A47
:10391000F7D105E0641C8C42FCDB305D0028F9D156
:10392000274405E00AE016F8010B51464A46904745
:10393000641EF8D26D1C28780028A2D13846BDE854
:10394000F88F000064390008000000208C0000009F
:1039500054380008F03900088C0000204C040000A6
:1039600064380008000000000000000000000000B3
:10397000460000003C000000320000000000000093
:103980005000000023000000B40000000000000010
:103990000500000005000000050000000500000013
:1039A000050000000500000000000000000000000D
:1039B0000000000000000000010000000000000006
:1039C00000000000000000000102030401020304E3
:1039D000060708090204060800A24A0400000000C5
:1039E00000000000010203040607080900000000AF
:0400000508000131BD
:00000001FF
