:020000040800F2
:100000002804002045010008690100086B01000870
:100010006F0100087301000877010008000000006C
:100020000000000000000000000000007B0100084C
:100030007D010008000000007F0100088101000828
:100040005F0100085F0100085F0100085F01000810
:100050005F0100085F0100085F0100085F01000800
:10006000850100085F0100085F0100085F010008CA
:100070005F0100085F0100085F0100085F010008E0
:100080005F0100085F0100085F0100085F010008D0
:100090005F0100085F0100085F010008830100089C
:1000A0005F0100085F0100085F0100085F010008B0
:1000B0005F0100085F0100085F0100085F010008A0
:1000C0005F0100085F0100085F0100085F01000890
:1000D0005F0100085F0100085F0100085F01000880
:1000E0005F0100085F0100085F0100085F01000870
:1000F0005F0100085F0100085F0100085F01000860
:100100005F0100085F0100085F0100085F0100084F
:100110005F0100085F0100085F0100085F0100083F
:100120005F0100085F0100085F0100085F0100082F
:10013000DFF80CD000F0C8FF00480047BD01000800
:10014000280400200648804706480047FEE7FEE7EF
:10015000FEE7FEE7FEE7FEE7FEE7FEE7FEE7FEE777
:10016000C90F000831010008704700BFFEE700BF5B
:10017000FEE700BFFEE700BFFEE77047704770472D
:100180007047704770B50025042000F09FFE88B1CD
:1001900000F01BFA05462021074800F075FDC0F16C
:1001A0000100C4B222462021034800F07EFD042055
:1001B00000F09DFE70BD0000000C014000F00AF848
:1001C00000F040F800F058F800F067F900F008F887
:1001D00000BFFEE710B54FF4C06000F01BFA10BD81
:1001E0001FB50121084600F0E9FB0420ADF80C0022
:1001F00028208DF80F0003A9114800F0A7FC022168
:10020000032000F0B7FD0420019000208DF80800C5
:100210000C208DF8090001208DF80A0001A800F0DB
:10022000EFFD08208DF8000000208DF801008DF80A
:10023000020001208DF80300684600F0F0F91FBDB0
:100240000014014008B50121082000F0B7FB202070
:10025000ADF8000010208DF8030003208DF8020097
:100260006946044800F072FC2021024800F019FDA4
:1002700008BD0000000C014008B50121202000F05D
:100280009DFB0320ADF8000010208DF80300032033
:100290008DF802006946DA4800F058FC0321D8487E
:1002A00000F0FFFCD648006820F00F00D449086039
:1002B0000846006840F00300086008BDD0480068A8
:1002C00020F0F000CE4908600846006840F0300099
:1002D00008600020CB4908604FF0030000BF010018
:1002E000A0F10102D0B2FAD10120C74908604FF055
:1002F000030000BF0100A0F10102D0B2FAD1012039
:10030000C04908604FF0030000BF0100A0F10102E6
:10031000D0B2FAD1BA48006820F0F000B8490860BD
:100320000846006840F080000860032000BF01001C
:10033000A0F10102D0B2FAD1704710B5B04A1268EC
:1003400022F0F002AE4B1A601A46126842F03002F8
:100350001A60002134E010F0800F03D00122A94B75
:100360001A6002E00022A74B1A604FF0030200BFA0
:100370001300A2F10104E2B2FAD10122A24B1A60E9
:100380004FEA40624FEA12604FF0030200BF1300D1
:10039000A2F10104E2B2FAD1032200BF1300A2F1DC
:1003A0000104E2B2FAD10022974B1A604FF0030227
:1003B00000BF1300A2F10104E2B2FAD14A1CD1B28B
:1003C0000829C8D101228F4B1A604FF0030200BFE9
:1003D0001300A2F10104E2B2FAD101228A4B1A60A1
:1003E0004FF0030200BF1300A2F10104E2B2FAD100
:1003F000032200BF1300A2F10104E2B2FAD10022ED
:10040000814B1A604FF0030200BF1300A2F10104F8
:10041000E2B2FAD110BD7A48006820F0F0007849C5
:1004200008600846006840F0300008600120754907
:1004300008607649C1F880014FF0030000BF010059
:10044000A0F10102D0B2FAD100206E4908604FF04D
:10045000030000BF0100A0F10102D0B2FAD10020D8
:10046000694908604FF0030000BF0100A0F10102DC
:10047000D0B2FAD1704710B50446FFF7CCFFC4F3F1
:10048000C71101F03E0141F06000FFF756FFE0B2F6
:10049000FFF753FFFFF712FF10BD00B540F2012038
:1004A000FFF7E9FF032000BF0100A0F10102D0B275
:1004B000FAD1032000BF0100A0F10102D0B2FAD1AD
:1004C00040F20340FFF7D7FF00BD10B500204C4AB3
:1004D000126822F0F0024A4B1A601A46126842F083
:1004E00030021A600122474B1A60454A126822F016
:1004F000F002434B1A601A46126842F080021A60FA
:1005000001462CE00122404B1A604FF0030200BF6D
:100510001300A2F10104E2B2FAD1032200BF1300DA
:10052000A2F10104E2B2FAD14206100E384A126872
:100530000AB1421CD0B20022334B1A604FF00302C2
:1005400000BF1300A2F10104E2B2FAD1032200BFFE
:100550001300A2F10104E2B2FAD14A1CD1B2082977
:10056000D0D1274A126822F0F002254B1A601A46B1
:10057000126842F030021A600122224B1A604FF0DA
:10058000030200BF1300A2F10104E2B2FAD101227A
:100590001D4B1A604FF0030200BF1300A2F10104CB
:1005A000E2B2FAD1032200BF1300A2F10104E2B2C9
:1005B000FAD10022144B1A604FF0030200BF13005F
:1005C000A2F10104E2B2FAD110BD10B5FFF723FF8A
:1005D0006F20FFF7B2FEFFF778FF0446032000BF4D
:1005E0000100A0F10102D0B2FAD1032000BF010046
:1005F000A0F10102D0B2FAD1FFF760FE204610BD93
:1006000000140140848122428081224200802242E3
:100610000481224231490143314A1160704770B56B
:10062000002100230F22C4780CB32D4C246804F45D
:10063000E064C4F5E064210AC1F10403CA404478CF
:1006400004FA03F18478144021430901254C06780B
:10065000A155047804F01F050124AC4005786D1104
:100660004FF0E02606EB8505C5F8004109E0047867
:1006700004F01F050124AC401B4D0678761145F8A7
:10068000264070BD194A0A400243154B1B1F1A60D1
:10069000704739B1124A121D12680243104B1B1DDC
:1006A0001A6006E00E4A121D126882430C4B1B1D95
:1006B0001A607047042808D14FF0E021096941F021
:1006C00004014FF0E022116107E04FF0E0210969D9
:1006D00021F004014FF0E022116170470000FA059B
:1006E0000CED00E000E400E080E100E080FFFF1F8F
:1006F000DB48006840F00100D949086008464068BE
:10070000D8490840D649486008460068D64908409C
:10071000D34908600846006820F480200860084635
:10072000406820F4FE0048604FF41F008860704766
:10073000CB49096821F48031C94A11601146096822
:1007400021F480211160B0F5803F03D0B0F5802FF7
:100750000ED106E0C249096841F48031C04A1160F7
:1007600007E0BF49096841F4A021BD4A116000E0DB
:1007700000BF00BF704710B50146002200230020D3
:100780004A11012A02D1B64C236806E0022A02D19E
:10079000B34C236A01E0B24C636A01F01F020124EA
:1007A00094401C4201D0012000E0002010BD70B533
:1007B00000240025002600BF3120FFF7DCFF06469D
:1007C000641CB4F5A06F01D0002EF5D03120FFF7E6
:1007D000D2FF08B1012500E00025284670BD014682
:1007E00000209F4A106820F0F80040EAC100106025
:1007F00070479E490860704702460020984B586831
:1008000020F47C1042EA01031843954B586070476E
:1008100096490866704701460020914A506820F0CA
:1008200003000843506070478D48406800F00C009A
:100830007047014600208A4A506820F0F0000843C3
:100840005060704701460020854A506820F4E060FF
:1008500008435060704701460020814A506820F4E8
:10086000605040EAC1005060704729B17C4A527A1A
:1008700002437B4B5A7204E0794A527A8243784BA6
:100880005A7270477A490860704701460020744ADE
:10089000506820F440400843506070470021754A7A
:1008A00011706F4A82F82010012802D0042808D164
:1008B00003E001216F4A117004E005216D4A1170B7
:1008C00000E000BF00BF70476B4908607047644993
:1008D000096A0143624A11627047674944390860F6
:1008E000704730B500210022002400235C4D6D6864
:1008F00005F00C0121B1042905D0082923D105E018
:100900005E4D056022E05D4D05601FE0544D6D6851
:1009100005F47012524D6D6805F48034022505EB24
:1009200092421CB9564D554305600BE04C4D6D6825
:1009300015F4003F03D0524D5543056002E04F4D82
:100940005543056002E04D4D056000BF00BF444DBA
:100950006D6805F0F00109094A4D6B5C0568DD40E2
:1009600045603F4D6D6805F4E061090A454D6B5CDB
:100970004568DD4085603A4D6D6805F46051C90AEF
:10098000404D6B5C4568DD40C560354D6D6805F4D4
:100990004041890B3C4D6B5CC568B5FBF3F50561C7
:1009A00030BD29B12E4A526902432D4B5A6104E0F1
:1009B0002B4A526982432A4B5A61704729B1284A0F
:1009C00092690243264B9A6104E0254A9269824368
:1009D000234B9A61704729B1214AD2690243204BC7
:1009E000DA6104E01E4AD26982431D4BDA61704726
:1009F00029B11B4AD2680243194BDA6004E0184A55
:100A0000D2688243164BDA60704729B1144A1269E2
:100A10000243134B1A6104E0114A12698243104BDE
:100A20001A61704714494039086070470F49C8641B
:100A300070470B49C87170470948406A40F08070A0
:100A400007494862704701460020054A92680A42F9
:100A500001D0012000E000207047014988727047F2
:100A6000001002400000FFF8FFFFF6FE00004242C7
:100A7000D8004242201002408004424200127A0014
:100A800000093D00000000201000002010B50446C1
:100A9000CA48844208D101210420FFF7A9FF0021A0
:100AA0000420FFF7A5FF46E0C548844208D1012194
:100AB0000820FFF79DFF00210820FFF799FF3AE08B
:100AC000C048844208D101211020FFF791FF002186
:100AD0001020FFF78DFF2EE0BB48844208D1012192
:100AE0002020FFF785FF00212020FFF781FF22E073
:100AF000B648844208D101214020FFF779FF002148
:100B00004020FFF775FF16E0B148844208D101216B
:100B10008020FFF76DFF00218020FFF769FF0AE0CA
:100B2000AC48844207D101218015FFF761FF002105
:100B3000A015FFF75DFF10BD10B501210846FFF7B6
:100B400057FF00210120FFF753FF10BD2DE9F041B1
:100B5000024600250026002000230024002791F8EB
:100B600003C00CF00F0591F803C01CF0100F03D068
:100B700091F802C04CEA050591F800C0BCF1000FE5
:100B800031D0146800202BE04FF0010C0CFA00F378
:100B9000B1F800C00CEA03069E4220D183004FF05A
:100BA0000F0C0CFA03F7BC4305FA03FC4CEA0404EF
:100BB00091F803C0BCF1280F06D14FF0010C0CFADC
:100BC00000FCC2F814C00AE091F803C0BCF1480F61
:100BD00005D14FF0010C0CFA00FCC2F810C0401C0B
:100BE0000828D1D31460B1F800C0BCF1FF0F34DD88
:100BF000546800202EE000F1080C4FF0010808FABC
:100C00000CF3B1F800C00CEA03069E4221D1830028
:100C10004FF00F0C0CFA03F7BC4305FA03FC4CEA47
:100C2000040491F803C0BCF1280F05D100F1080CB1
:100C300008FA0CF8C2F8148091F803C0BCF1480F10
:100C400007D100F1080C4FF0010808FA0CF8C2F8BF
:100C50001080401C0828CED35460BDE8F0814FF6C8
:100C6000FF710180022181700421C170704702462A
:100C7000002093680B4201D0012000E00020704763
:100C80000146886880B2704702460020D3680B4254
:100C900001D0012000E0002070470146C86880B202
:100CA000704701617047416170470AB1016100E01E
:100CB00041617047C16070474FF480320A438261DE
:100CC0008161826182698269704702460020424BDD
:100CD00018684FF68073184040EA021008433E4BF4
:100CE000186070473D49C8617047F0B50A46002357
:100CF00000240021002500F00046B6F1004F02D18B
:100D0000354EF16901E0344E7168C0F3034583B29A
:100D100000F44016B6F5401F08D121F070612E4E48
:100D2000766826F070662C4F7E6012E000F4801624
:100D3000B6F5801F06D1032606FA05F4A14341F05B
:100D4000706106E0460D360103FA06F6B14341F044
:100D5000706122B1460D360103FA06F6314300F008
:100D60000046B6F1004F02D11B4EF16101E01A4E70
:100D70007160F0BD30B500228B071C0F0F2303FA02
:100D800004F2154B08338C1053F824309343124C63
:100D900008348D1044F8253023468C1053F8243045
:100DA0008C07240F00FA04F423430B4C08348D10F5
:100DB00044F8253030BD0A490860704700080140FA
:100DC000000C0140001001400014014000180140D7
:100DD000001C0140002001400000014000002042B2
:100DE000DC002042002044490860091D0860091DFC
:100DF0000860091D086041483F4914310860704788
:100E000000213D498279002A3AD00A4612680368D7
:100E10009A430B461A600A1D126803689A430B1D19
:100E20001A60027911440A6803681A430A60324A58
:100E30000832126803689A432F4B08331A601A1D50
:100E4000126803689A432C4B0C331A604279102ABB
:100E50000ED11A1F126803681A43274B08331A6011
:100E60001A1D126803681A43234B0C331A600DE0F5
:100E70002149427911440A6803681A430A6005E06F
:100E8000027911440A6803689A430A607047002196
:100E9000016001710C214171002181717047164977
:100EA000103109680143144A10321160704701463D
:100EB0000020114A143212680A4201D0012000E0D9
:100EC000002070470C49143108607047014600202B
:100ED0000022094B1B6803EA0102074B14331B680D
:100EE0000B4202D00AB1012000E000207047024905
:100EF000143108607047000000040140FFFF0F003C
:100F000000210020674A126842F48032654B1A6063
:100F100000BF644A126802F40030491C10B9B1F5F0
:100F2000A06FF6D15F4A126812F4003F01D0012091
:100F300000E00020012842D15B4A126842F0100212
:100F4000594B1A601A46126822F003021A601A46B8
:100F5000126842F002021A60524A5268514B5A60BB
:100F60001A4652685A601A46526842F480625A60C1
:100F70001A46526822F47C125A601A46526842F4A9
:100F8000E8125A601A46126842F080721A6000BF76
:100F9000444A126812F0007FFAD0424A526822F0A6
:100FA0000302404B5A601A46526842F002025A60ED
:100FB00000BF3C4A526802F00C02082AF9D170477F
:100FC00010B5FFF79DFF10BD10B53648006840F022
:100FD00001003449086008464068344908403149F6
:100FE000486008460068324908402E4908600846B3
:100FF000006820F4802008600846406820F4FE0065
:1010000048604FF41F008860FFF7DAFF4FF0006080
:101010002849086010BD10B5002100200022214B96
:101020005B6803F00C0121B1042906D0082928D1FE
:1010300007E0214B214C236027E01F4B1F4C23600E
:1010400023E0184B5B6803F47010164B5B6803F4E5
:101050008032022303EB904022B9194B4343174CD3
:1010600023600DE00F4B5B6813F4003F04D0144B7A
:101070004343124C236003E00F4B43430F4C236068
:1010800003E00D4B0D4C236000BF00BF054B5B68B8
:10109000C3F303130B4CE15C084B1B68CB40074CBC
:1010A000236010BD00100240002002400000FFF845
:1010B000FFFFF6FE08ED00E000127A0014000020A9
:1010C00000093D0018000020064C074D06E0E068CE
:1010D00040F0010394E8070098471034AC42F6D37F
:1010E000FFF72AF80C1100082C11000802E008C8CC
:1010F000121F08C1002AFAD170477047002001E092
:1011000001C1121F002AFBD1704700002C110008FA
:101110000000002028000000EC1000085411000816
:101120002800002000040000FC100008000000005F
:101130000102030401020304060708090204060869
:1011400000A24A04000000000000000001020304A5
:04115000060708097D
:0400000508000131BD
:00000001FF
